{
  "contractName": "EmitterFactory",
  "abi": [
    {
      "anonymous": false,
      "inputs": [
        {
          "indexed": true,
          "internalType": "address",
          "name": "deployer",
          "type": "address"
        },
        {
          "indexed": true,
          "internalType": "address",
          "name": "instance",
          "type": "address"
        }
      ],
      "name": "Deployed",
      "type": "event"
    },
    {
      "inputs": [
        {
          "internalType": "uint256",
          "name": "",
          "type": "uint256"
        }
      ],
      "name": "deployed",
      "outputs": [
        {
          "internalType": "address",
          "name": "",
          "type": "address"
        }
      ],
      "stateMutability": "view",
      "type": "function"
    },
    {
      "inputs": [],
      "name": "deployEmitter",
      "outputs": [
        {
          "internalType": "address",
          "name": "",
          "type": "address"
        }
      ],
      "stateMutability": "nonpayable",
      "type": "function"
    },
    {
      "inputs": [],
      "name": "count",
      "outputs": [
        {
          "internalType": "uint256",
          "name": "",
          "type": "uint256"
        }
      ],
      "stateMutability": "view",
      "type": "function"
    },
    {
      "inputs": [
        {
          "internalType": "uint256",
          "name": "idx",
          "type": "uint256"
        }
      ],
      "name": "get",
      "outputs": [
        {
          "internalType": "address",
          "name": "",
          "type": "address"
        }
      ],
      "stateMutability": "view",
      "type": "function"
    }
  ],
  "bytecode": "0x608060405234801561001057600080fd5b506111c7806100206000396000f3fe60806040523480156200001157600080fd5b5060043610620000525760003560e01c806306661abd146200005757806315b40ec0146200007957806381179ad714620000af5780639507d39a14620000d1575b600080fd5b6200006162000107565b6040516200007091906200030b565b60405180910390f35b6200009760048036038101906200009191906200035e565b62000113565b604051620000a69190620003d5565b60405180910390f35b620000b962000153565b604051620000c89190620003d5565b60405180910390f35b620000ef6004803603810190620000e991906200035e565b6200024e565b604051620000fe9190620003d5565b60405180910390f35b60008080549050905090565b600081815481106200012457600080fd5b906000526020600020016000915054906101000a900473ffffffffffffffffffffffffffffffffffffffff1681565b6000806040516200016490620002e2565b604051809103906000f08015801562000181573d6000803e3d6000fd5b50905060008190506000819080600181540180825580915050600190039060005260206000200160009091909190916101000a81548173ffffffffffffffffffffffffffffffffffffffff021916908373ffffffffffffffffffffffffffffffffffffffff1602179055508073ffffffffffffffffffffffffffffffffffffffff163373ffffffffffffffffffffffffffffffffffffffff167f09e48df7857bd0c1e0d31bb8a85d42cf1874817895f171c917f6ee2cea73ec2060405160405180910390a3809250505090565b60008080549050821062000299576040517f08c379a0000000000000000000000000000000000000000000000000000000008152600401620002909062000453565b60405180910390fd5b60008281548110620002b057620002af62000475565b5b9060005260206000200160009054906101000a900473ffffffffffffffffffffffffffffffffffffffff169050919050565b610ced80620004a583390190565b6000819050919050565b6200030581620002f0565b82525050565b6000602082019050620003226000830184620002fa565b92915050565b600080fd5b6200033881620002f0565b81146200034457600080fd5b50565b60008135905062000358816200032d565b92915050565b60006020828403121562000377576200037662000328565b5b6000620003878482850162000347565b91505092915050565b600073ffffffffffffffffffffffffffffffffffffffff82169050919050565b6000620003bd8262000390565b9050919050565b620003cf81620003b0565b82525050565b6000602082019050620003ec6000830184620003c4565b92915050565b600082825260208201905092915050565b7f696e646578204f4f420000000000000000000000000000000000000000000000600082015250565b60006200043b600983620003f2565b9150620004488262000403565b602082019050919050565b600060208201905081810360008301526200046e816200042c565b9050919050565b7f4e487b7100000000000000000000000000000000000000000000000000000000600052603260045260246000fdfe60806040526040518060400160405280600c81526020017f456d6974746572546f6b656e0000000000000000000000000000000000000000815250600090816200004a919062000326565b503480156200005857600080fd5b50683635c9adc5dea00000600160003373ffffffffffffffffffffffffffffffffffffffff1673ffffffffffffffffffffffffffffffffffffffff168152602001908152602001600020819055506200040d565b600081519050919050565b7f4e487b7100000000000000000000000000000000000000000000000000000000600052604160045260246000fd5b7f4e487b7100000000000000000000000000000000000000000000000000000000600052602260045260246000fd5b600060028204905060018216806200012e57607f821691505b602082108103620001445762000143620000e6565b5b50919050565b60008190508160005260206000209050919050565b60006020601f8301049050919050565b600082821b905092915050565b600060088302620001ae7fffffffffffffffffffffffffffffffffffffffffffffffffffffffffffffffff826200016f565b620001ba86836200016f565b95508019841693508086168417925050509392505050565b6000819050919050565b6000819050919050565b60006200020762000201620001fb84620001d2565b620001dc565b620001d2565b9050919050565b6000819050919050565b6200022383620001e6565b6200023b62000232826200020e565b8484546200017c565b825550505050565b600090565b6200025262000243565b6200025f81848462000218565b505050565b5b8181101562000287576200027b60008262000248565b60018101905062000265565b5050565b601f821115620002d657620002a0816200014a565b620002ab846200015f565b81016020851015620002bb578190505b620002d3620002ca856200015f565b83018262000264565b50505b505050565b600082821c905092915050565b6000620002fb60001984600802620002db565b1980831691505092915050565b6000620003168383620002e8565b9150826002028217905092915050565b6200033182620000ac565b67ffffffffffffffff8111156200034d576200034c620000b7565b5b62000359825462000115565b620003668282856200028b565b600060209050601f8311600181146200039e576000841562000389578287015190505b62000395858262000308565b86555062000405565b601f198416620003ae866200014a565b60005b82811015620003d857848901518255600182019150602085019450602081019050620003b1565b86831015620003f85784890151620003f4601f891682620002e8565b8355505b6001600288020188555050505b505050505050565b6108d0806200041d6000396000f3fe608060405234801561001057600080fd5b50600436106100575760003560e01c806306fdde031461005c5780633adb191b1461007a57806370a0823114610096578063a9059cbb146100c6578063e3d670d7146100f6575b600080fd5b610064610126565b6040516100719190610498565b60405180910390f35b610094600480360381019061008f9190610529565b6101b4565b005b6100b060048036038101906100ab91906105d4565b610208565b6040516100bd919061061a565b60405180910390f35b6100e060048036038101906100db9190610661565b610251565b6040516100ed91906106bc565b60405180910390f35b610110600480360381019061010b91906105d4565b6103f0565b60405161011d919061061a565b60405180910390f35b6000805461013390610706565b80601f016020809104026020016040519081016040528092919081815260200182805461015f90610706565b80156101ac5780601f10610181576101008083540402835291602001916101ac565b820191906000526020600020905b81548152906001019060200180831161018f57829003601f168201915b505050505081565b3373ffffffffffffffffffffffffffffffffffffffff167f92b63c92568c54f16a06a1bc05698c40a9313bc847ec5bc1db177ffd7cde187483836040516101fc929190610773565b60405180910390a25050565b6000600160008373ffffffffffffffffffffffffffffffffffffffff1673ffffffffffffffffffffffffffffffffffffffff168152602001908152602001600020549050919050565b600081600160003373ffffffffffffffffffffffffffffffffffffffff1673ffffffffffffffffffffffffffffffffffffffff1681526020019081526020016000205410156102d5576040517f08c379a00000000000000000000000000000000000000000000000000000000081526004016102cc906107e3565b60405180910390fd5b81600160003373ffffffffffffffffffffffffffffffffffffffff1673ffffffffffffffffffffffffffffffffffffffff16815260200190815260200160002060008282546103249190610832565b9250508190555081600160008573ffffffffffffffffffffffffffffffffffffffff1673ffffffffffffffffffffffffffffffffffffffff168152602001908152602001600020600082825461037a9190610866565b925050819055508273ffffffffffffffffffffffffffffffffffffffff163373ffffffffffffffffffffffffffffffffffffffff167fddf252ad1be2c89b69c2b068fc378daa952ba7f163c4a11628f55a4df523b3ef846040516103de919061061a565b60405180910390a36001905092915050565b60016020528060005260406000206000915090505481565b600081519050919050565b600082825260208201905092915050565b60005b83811015610442578082015181840152602081019050610427565b60008484015250505050565b6000601f19601f8301169050919050565b600061046a82610408565b6104748185610413565b9350610484818560208601610424565b61048d8161044e565b840191505092915050565b600060208201905081810360008301526104b2818461045f565b905092915050565b600080fd5b600080fd5b600080fd5b600080fd5b600080fd5b60008083601f8401126104e9576104e86104c4565b5b8235905067ffffffffffffffff811115610506576105056104c9565b5b602083019150836001820283011115610522576105216104ce565b5b9250929050565b600080602083850312156105405761053f6104ba565b5b600083013567ffffffffffffffff81111561055e5761055d6104bf565b5b61056a858286016104d3565b92509250509250929050565b600073ffffffffffffffffffffffffffffffffffffffff82169050919050565b60006105a182610576565b9050919050565b6105b181610596565b81146105bc57600080fd5b50565b6000813590506105ce816105a8565b92915050565b6000602082840312156105ea576105e96104ba565b5b60006105f8848285016105bf565b91505092915050565b6000819050919050565b61061481610601565b82525050565b600060208201905061062f600083018461060b565b92915050565b61063e81610601565b811461064957600080fd5b50565b60008135905061065b81610635565b92915050565b60008060408385031215610678576106776104ba565b5b6000610686858286016105bf565b92505060206106978582860161064c565b9150509250929050565b60008115159050919050565b6106b6816106a1565b82525050565b60006020820190506106d160008301846106ad565b92915050565b7f4e487b7100000000000000000000000000000000000000000000000000000000600052602260045260246000fd5b6000600282049050600182168061071e57607f821691505b602082108103610731576107306106d7565b5b50919050565b82818337600083830152505050565b60006107528385610413565b935061075f838584610737565b6107688361044e565b840190509392505050565b6000602082019050818103600083015261078e818486610746565b90509392505050565b7f696e73756666696369656e740000000000000000000000000000000000000000600082015250565b60006107cd600c83610413565b91506107d882610797565b602082019050919050565b600060208201905081810360008301526107fc816107c0565b9050919050565b7f4e487b7100000000000000000000000000000000000000000000000000000000600052601160045260246000fd5b600061083d82610601565b915061084883610601565b92508282039050818111156108605761085f610803565b5b92915050565b600061087182610601565b915061087c83610601565b925082820190508082111561089457610893610803565b5b9291505056fea2646970667358221220729d26e839f5ffc2961de5542a688e319c373bae9ae2b6a8bc91c691d9d67ca364736f6c63430008110033a2646970667358221220d082554a894844a7eb49d0811270cc634276cdf80e343f66e81fd141e0b4008864736f6c63430008110033",
  "immutableReferences": {},
  "source": "// SPDX-License-Identifier: MIT\npragma solidity ^0.8.0;\n\nimport \"./TokenEmitter.sol\";\n\n/// @title EmitterFactory - deploy many TokenEmitter instances for event testing\n/// @notice Allows convenient deployment of multiple TokenEmitter contracts and tracks them\ncontract EmitterFactory {\n    address[] public deployed;\n\n    event Deployed(address indexed deployer, address indexed instance);\n\n    /// @notice Deploys a fresh TokenEmitter and records the address\n    function deployEmitter() external returns (address) {\n        TokenEmitter t = new TokenEmitter();\n        address addr = address(t);\n        deployed.push(addr);\n        emit Deployed(msg.sender, addr);\n        return addr;\n    }\n\n    /// @notice Get number of deployed emitters\n    function count() external view returns (uint256) {\n        return deployed.length;\n    }\n\n    /// @notice Get deployed emitter at index\n    function get(uint256 idx) external view returns (address) {\n        require(idx < deployed.length, \"index OOB\");\n        return deployed[idx];\n    }\n}\n",
  "sourcePath": "C:\\Users\\dillo\\Documents\\Tarc\\Blockchain\\BlockChain\\contracts\\EmitterFactory.sol",
  "compiler": {
    "name": "solc",
    "version": "0.8.17+commit.8df45f5f.Emscripten.clang"
  },
  "schemaVersion": "3.4.16",
  "updatedAt": "2025-09-19T17:07:51.268Z",
  "devdoc": {
    "kind": "dev",
    "methods": {},
    "title": "EmitterFactory - deploy many TokenEmitter instances for event testing",
    "version": 1
  },
  "userdoc": {
    "kind": "user",
    "methods": {
      "count()": {
        "notice": "Get number of deployed emitters"
      },
      "deployEmitter()": {
        "notice": "Deploys a fresh TokenEmitter and records the address"
      },
      "get(uint256)": {
        "notice": "Get deployed emitter at index"
      }
    },
    "notice": "Allows convenient deployment of multiple TokenEmitter contracts and tracks them",
    "version": 1
  }
}