{
  "contractName": "EventGenerator",
  "abi": [
    {
      "inputs": [],
      "stateMutability": "nonpayable",
      "type": "constructor"
    },
    {
      "anonymous": false,
      "inputs": [
        {
          "indexed": true,
          "internalType": "address",
          "name": "a",
          "type": "address"
        },
        {
          "indexed": true,
          "internalType": "address",
          "name": "b",
          "type": "address"
        },
        {
          "indexed": true,
          "internalType": "uint256",
          "name": "id",
          "type": "uint256"
        },
        {
          "indexed": false,
          "internalType": "uint256",
          "name": "value",
          "type": "uint256"
        }
      ],
      "name": "ComplexEvent",
      "type": "event"
    },
    {
      "anonymous": false,
      "inputs": [
        {
          "indexed": false,
          "internalType": "uint256",
          "name": "id",
          "type": "uint256"
        },
        {
          "indexed": false,
          "internalType": "bytes",
          "name": "data",
          "type": "bytes"
        }
      ],
      "name": "DataStored",
      "type": "event"
    },
    {
      "anonymous": false,
      "inputs": [
        {
          "indexed": true,
          "internalType": "address",
          "name": "creator",
          "type": "address"
        },
        {
          "indexed": true,
          "internalType": "uint256",
          "name": "id",
          "type": "uint256"
        },
        {
          "indexed": false,
          "internalType": "string",
          "name": "name",
          "type": "string"
        }
      ],
      "name": "ItemCreated",
      "type": "event"
    },
    {
      "anonymous": false,
      "inputs": [
        {
          "indexed": true,
          "internalType": "uint256",
          "name": "id",
          "type": "uint256"
        },
        {
          "indexed": false,
          "internalType": "bool",
          "name": "ok",
          "type": "bool"
        },
        {
          "indexed": false,
          "internalType": "string",
          "name": "message",
          "type": "string"
        }
      ],
      "name": "StatusUpdated",
      "type": "event"
    },
    {
      "inputs": [
        {
          "internalType": "string",
          "name": "name",
          "type": "string"
        }
      ],
      "name": "createItem",
      "outputs": [
        {
          "internalType": "uint256",
          "name": "",
          "type": "uint256"
        }
      ],
      "stateMutability": "nonpayable",
      "type": "function"
    },
    {
      "inputs": [
        {
          "internalType": "uint256",
          "name": "id",
          "type": "uint256"
        },
        {
          "internalType": "bytes",
          "name": "data",
          "type": "bytes"
        }
      ],
      "name": "storeData",
      "outputs": [],
      "stateMutability": "nonpayable",
      "type": "function"
    },
    {
      "inputs": [
        {
          "internalType": "address",
          "name": "other",
          "type": "address"
        },
        {
          "internalType": "uint256",
          "name": "value",
          "type": "uint256"
        }
      ],
      "name": "triggerComplex",
      "outputs": [],
      "stateMutability": "nonpayable",
      "type": "function"
    },
    {
      "inputs": [
        {
          "internalType": "uint256",
          "name": "id",
          "type": "uint256"
        },
        {
          "internalType": "bool",
          "name": "ok",
          "type": "bool"
        },
        {
          "internalType": "string",
          "name": "message",
          "type": "string"
        }
      ],
      "name": "updateStatus",
      "outputs": [],
      "stateMutability": "nonpayable",
      "type": "function"
    }
  ],
  "bytecode": "0x608060405234801561001057600080fd5b5060008081905550610745806100276000396000f3fe608060405234801561001057600080fd5b506004361061004c5760003560e01c806303744c8d146100515780633d54eebb1461006d5780635ab18c531461009d578063e0d899f9146100b9575b600080fd5b61006b600480360381019061006691906102fb565b6100d5565b005b610087600480360381019061008291906103a0565b61015f565b60405161009491906103fc565b60405180910390f35b6100b760048036038101906100b2919061044f565b6101db565b005b6100d360048036038101906100ce9190610519565b61021d565b005b60016000808282546100e791906105a8565b92505081905550600080549050808373ffffffffffffffffffffffffffffffffffffffff163373ffffffffffffffffffffffffffffffffffffffff167f7ab436f0fd3c7ae5a42586792ceede64aa5f529af5becea80bad8d9467e1b8d38560405161015291906103fc565b60405180910390a4505050565b6000600160008082825461017391906105a8565b92505081905550600080549050803373ffffffffffffffffffffffffffffffffffffffff167f77e4cbb0138f162921d80fadb675058ab30dbd5917de41ea153d859d8b0ff6a586866040516101c992919061063a565b60405180910390a38091505092915050565b837f2fe0d8c45daddc67a693cc5d6d78ff62e30b132b3dcf112ec0e6aaeed58907a884848460405161020f9392919061066d565b60405180910390a250505050565b7fea62410e22a807f60ad60480e7498957e233e32ff67f6822728399e438b46ffc838383604051610250939291906106dd565b60405180910390a1505050565b600080fd5b600080fd5b600073ffffffffffffffffffffffffffffffffffffffff82169050919050565b600061029282610267565b9050919050565b6102a281610287565b81146102ad57600080fd5b50565b6000813590506102bf81610299565b92915050565b6000819050919050565b6102d8816102c5565b81146102e357600080fd5b50565b6000813590506102f5816102cf565b92915050565b600080604083850312156103125761031161025d565b5b6000610320858286016102b0565b9250506020610331858286016102e6565b9150509250929050565b600080fd5b600080fd5b600080fd5b60008083601f8401126103605761035f61033b565b5b8235905067ffffffffffffffff81111561037d5761037c610340565b5b60208301915083600182028301111561039957610398610345565b5b9250929050565b600080602083850312156103b7576103b661025d565b5b600083013567ffffffffffffffff8111156103d5576103d4610262565b5b6103e18582860161034a565b92509250509250929050565b6103f6816102c5565b82525050565b600060208201905061041160008301846103ed565b92915050565b60008115159050919050565b61042c81610417565b811461043757600080fd5b50565b60008135905061044981610423565b92915050565b600080600080606085870312156104695761046861025d565b5b6000610477878288016102e6565b94505060206104888782880161043a565b935050604085013567ffffffffffffffff8111156104a9576104a8610262565b5b6104b58782880161034a565b925092505092959194509250565b60008083601f8401126104d9576104d861033b565b5b8235905067ffffffffffffffff8111156104f6576104f5610340565b5b60208301915083600182028301111561051257610511610345565b5b9250929050565b6000806000604084860312156105325761053161025d565b5b6000610540868287016102e6565b935050602084013567ffffffffffffffff81111561056157610560610262565b5b61056d868287016104c3565b92509250509250925092565b7f4e487b7100000000000000000000000000000000000000000000000000000000600052601160045260246000fd5b60006105b3826102c5565b91506105be836102c5565b92508282019050808211156105d6576105d5610579565b5b92915050565b600082825260208201905092915050565b82818337600083830152505050565b6000601f19601f8301169050919050565b600061061983856105dc565b93506106268385846105ed565b61062f836105fc565b840190509392505050565b6000602082019050818103600083015261065581848661060d565b90509392505050565b61066781610417565b82525050565b6000604082019050610682600083018661065e565b818103602083015261069581848661060d565b9050949350505050565b600082825260208201905092915050565b60006106bc838561069f565b93506106c98385846105ed565b6106d2836105fc565b840190509392505050565b60006040820190506106f260008301866103ed565b81810360208301526107058184866106b0565b905094935050505056fea26469706673582212209ea597ab283b9d6a4608dd735729ece3ee92116bad4b5c8be0c7e6a309db688464736f6c63430008110033",
  "immutableReferences": {},
  "source": "// SPDX-License-Identifier: MIT\npragma solidity ^0.8.0;\n\n/// @title EventGenerator - emits multiple types of events for scanner testing\n/// @notice Contains indexed and non-indexed event params, arrays (emitted as bytes), and numeric/logical events\ncontract EventGenerator {\n    /// @notice simple event with indexed address and numeric id\n    event ItemCreated(address indexed creator, uint256 indexed id, string name);\n\n    /// @notice event with non-indexed payload\n    event DataStored(uint256 id, bytes data);\n\n    /// @notice event with multiple indexed fields\n    event ComplexEvent(address indexed a, address indexed b, uint256 indexed id, uint256 value);\n\n    /// @notice event showing boolean and string\n    event StatusUpdated(uint256 indexed id, bool ok, string message);\n\n    uint256 private _counter;\n\n    constructor() {\n        _counter = 0;\n    }\n\n    /// @notice create an item and emit ItemCreated\n    function createItem(string calldata name) external returns (uint256) {\n        _counter += 1;\n        uint256 id = _counter;\n        emit ItemCreated(msg.sender, id, name);\n        return id;\n    }\n\n    /// @notice store arbitrary bytes and emit DataStored\n    function storeData(uint256 id, bytes calldata data) external {\n        emit DataStored(id, data);\n    }\n\n    /// @notice emit ComplexEvent between two addresses with a value\n    function triggerComplex(address other, uint256 value) external {\n        _counter += 1;\n        uint256 id = _counter;\n        emit ComplexEvent(msg.sender, other, id, value);\n    }\n\n    /// @notice emit StatusUpdated\n    function updateStatus(uint256 id, bool ok, string calldata message) external {\n        emit StatusUpdated(id, ok, message);\n    }\n}\n",
  "sourcePath": "C:\\Users\\dillo\\Documents\\Tarc\\Blockchain\\BlockChain\\contracts\\EventGenerator.sol",
  "compiler": {
    "name": "solc",
    "version": "0.8.17+commit.8df45f5f.Emscripten.clang"
  },
  "schemaVersion": "3.4.16",
  "updatedAt": "2025-09-19T17:07:51.270Z",
  "devdoc": {
    "kind": "dev",
    "methods": {},
    "title": "EventGenerator - emits multiple types of events for scanner testing",
    "version": 1
  },
  "userdoc": {
    "events": {
      "ComplexEvent(address,address,uint256,uint256)": {
        "notice": "event with multiple indexed fields"
      },
      "DataStored(uint256,bytes)": {
        "notice": "event with non-indexed payload"
      },
      "ItemCreated(address,uint256,string)": {
        "notice": "simple event with indexed address and numeric id"
      },
      "StatusUpdated(uint256,bool,string)": {
        "notice": "event showing boolean and string"
      }
    },
    "kind": "user",
    "methods": {
      "createItem(string)": {
        "notice": "create an item and emit ItemCreated"
      },
      "storeData(uint256,bytes)": {
        "notice": "store arbitrary bytes and emit DataStored"
      },
      "triggerComplex(address,uint256)": {
        "notice": "emit ComplexEvent between two addresses with a value"
      },
      "updateStatus(uint256,bool,string)": {
        "notice": "emit StatusUpdated"
      }
    },
    "notice": "Contains indexed and non-indexed event params, arrays (emitted as bytes), and numeric/logical events",
    "version": 1
  }
}