{
  "contractName": "UserRegistry",
  "abi": [
    {
      "anonymous": false,
      "inputs": [
        {
          "indexed": false,
          "internalType": "address",
          "name": "user",
          "type": "address"
        },
        {
          "indexed": false,
          "internalType": "string",
          "name": "username",
          "type": "string"
        }
      ],
      "name": "UserRegistered",
      "type": "event"
    },
    {
      "inputs": [
        {
          "internalType": "address",
          "name": "",
          "type": "address"
        }
      ],
      "name": "users",
      "outputs": [
        {
          "internalType": "address",
          "name": "wallet",
          "type": "address"
        },
        {
          "internalType": "string",
          "name": "username",
          "type": "string"
        }
      ],
      "stateMutability": "view",
      "type": "function",
      "constant": true
    },
    {
      "inputs": [
        {
          "internalType": "string",
          "name": "_username",
          "type": "string"
        }
      ],
      "name": "registerUser",
      "outputs": [],
      "stateMutability": "nonpayable",
      "type": "function"
    },
    {
      "inputs": [
        {
          "internalType": "address",
          "name": "_wallet",
          "type": "address"
        }
      ],
      "name": "getUser",
      "outputs": [
        {
          "internalType": "string",
          "name": "",
          "type": "string"
        }
      ],
      "stateMutability": "view",
      "type": "function",
      "constant": true
    }
  ],
  "bytecode": "0x608060405234801561001057600080fd5b50610acf806100206000396000f3fe608060405234801561001057600080fd5b50600436106100415760003560e01c80636f77926b14610046578063704f1b9414610076578063a87430ba14610092575b600080fd5b610060600480360381019061005b91906104a9565b6100c3565b60405161006d9190610566565b60405180910390f35b610090600480360381019061008b91906106bd565b610196565b005b6100ac60048036038101906100a791906104a9565b61036b565b6040516100ba929190610715565b60405180910390f35b60606000808373ffffffffffffffffffffffffffffffffffffffff1673ffffffffffffffffffffffffffffffffffffffff168152602001908152602001600020600101805461011190610774565b80601f016020809104026020016040519081016040528092919081815260200182805461013d90610774565b801561018a5780601f1061015f5761010080835404028352916020019161018a565b820191906000526020600020905b81548152906001019060200180831161016d57829003601f168201915b50505050509050919050565b600073ffffffffffffffffffffffffffffffffffffffff166000803373ffffffffffffffffffffffffffffffffffffffff1673ffffffffffffffffffffffffffffffffffffffff16815260200190815260200160002060000160009054906101000a900473ffffffffffffffffffffffffffffffffffffffff1673ffffffffffffffffffffffffffffffffffffffff1614610266576040517f08c379a000000000000000000000000000000000000000000000000000000000815260040161025d906107f1565b60405180910390fd5b60405180604001604052803373ffffffffffffffffffffffffffffffffffffffff168152602001828152506000803373ffffffffffffffffffffffffffffffffffffffff1673ffffffffffffffffffffffffffffffffffffffff16815260200190815260200160002060008201518160000160006101000a81548173ffffffffffffffffffffffffffffffffffffffff021916908373ffffffffffffffffffffffffffffffffffffffff160217905550602082015181600101908161032b91906109c7565b509050507f48cac28ad4dc618e15f4c2dd5e97751182f166de97b25618318b2112aa951a2f3382604051610360929190610715565b60405180910390a150565b60006020528060005260406000206000915090508060000160009054906101000a900473ffffffffffffffffffffffffffffffffffffffff16908060010180546103b490610774565b80601f01602080910402602001604051908101604052809291908181526020018280546103e090610774565b801561042d5780601f106104025761010080835404028352916020019161042d565b820191906000526020600020905b81548152906001019060200180831161041057829003601f168201915b5050505050905082565b6000604051905090565b600080fd5b600080fd5b600073ffffffffffffffffffffffffffffffffffffffff82169050919050565b60006104768261044b565b9050919050565b6104868161046b565b811461049157600080fd5b50565b6000813590506104a38161047d565b92915050565b6000602082840312156104bf576104be610441565b5b60006104cd84828501610494565b91505092915050565b600081519050919050565b600082825260208201905092915050565b60005b838110156105105780820151818401526020810190506104f5565b60008484015250505050565b6000601f19601f8301169050919050565b6000610538826104d6565b61054281856104e1565b93506105528185602086016104f2565b61055b8161051c565b840191505092915050565b60006020820190508181036000830152610580818461052d565b905092915050565b600080fd5b600080fd5b7f4e487b7100000000000000000000000000000000000000000000000000000000600052604160045260246000fd5b6105ca8261051c565b810181811067ffffffffffffffff821117156105e9576105e8610592565b5b80604052505050565b60006105fc610437565b905061060882826105c1565b919050565b600067ffffffffffffffff82111561062857610627610592565b5b6106318261051c565b9050602081019050919050565b82818337600083830152505050565b600061066061065b8461060d565b6105f2565b90508281526020810184848401111561067c5761067b61058d565b5b61068784828561063e565b509392505050565b600082601f8301126106a4576106a3610588565b5b81356106b484826020860161064d565b91505092915050565b6000602082840312156106d3576106d2610441565b5b600082013567ffffffffffffffff8111156106f1576106f0610446565b5b6106fd8482850161068f565b91505092915050565b61070f8161046b565b82525050565b600060408201905061072a6000830185610706565b818103602083015261073c818461052d565b90509392505050565b7f4e487b7100000000000000000000000000000000000000000000000000000000600052602260045260246000fd5b6000600282049050600182168061078c57607f821691505b60208210810361079f5761079e610745565b5b50919050565b7f416c726561647920726567697374657265640000000000000000000000000000600082015250565b60006107db6012836104e1565b91506107e6826107a5565b602082019050919050565b6000602082019050818103600083015261080a816107ce565b9050919050565b60008190508160005260206000209050919050565b60006020601f8301049050919050565b600082821b905092915050565b6000600883026108737fffffffffffffffffffffffffffffffffffffffffffffffffffffffffffffffff82610836565b61087d8683610836565b95508019841693508086168417925050509392505050565b6000819050919050565b6000819050919050565b60006108c46108bf6108ba84610895565b61089f565b610895565b9050919050565b6000819050919050565b6108de836108a9565b6108f26108ea826108cb565b848454610843565b825550505050565b600090565b6109076108fa565b6109128184846108d5565b505050565b5b818110156109365761092b6000826108ff565b600181019050610918565b5050565b601f82111561097b5761094c81610811565b61095584610826565b81016020851015610964578190505b61097861097085610826565b830182610917565b50505b505050565b600082821c905092915050565b600061099e60001984600802610980565b1980831691505092915050565b60006109b7838361098d565b9150826002028217905092915050565b6109d0826104d6565b67ffffffffffffffff8111156109e9576109e8610592565b5b6109f38254610774565b6109fe82828561093a565b600060209050601f831160018114610a315760008415610a1f578287015190505b610a2985826109ab565b865550610a91565b601f198416610a3f86610811565b60005b82811015610a6757848901518255600182019150602085019450602081019050610a42565b86831015610a845784890151610a80601f89168261098d565b8355505b6001600288020188555050505b50505050505056fea26469706673582212209173f11324d5c513a71a8b80f306f49f6601933e72fc94efe454a7f57688f88c64736f6c63430008110033",
  "immutableReferences": {},
  "source": "// contracts/UserRegistry.sol\r\n// SPDX-License-Identifier: MIT\r\npragma solidity ^0.8.0;\r\n\r\ncontract UserRegistry {\r\n    struct User {\r\n        address wallet;\r\n        string username;\r\n    }\r\n\r\n    mapping(address => User) public users;\r\n\r\n    event UserRegistered(address user, string username);\r\n\r\n    function registerUser(string memory _username) public {\r\n        require(users[msg.sender].wallet == address(0), \"Already registered\");\r\n        users[msg.sender] = User(msg.sender, _username);\r\n        emit UserRegistered(msg.sender, _username);\r\n    }\r\n\r\n    function getUser(address _wallet) public view returns (string memory) {\r\n        return users[_wallet].username;\r\n    }\r\n}\r\n",
  "sourcePath": "C:\\Users\\dillo\\Documents\\Tarc\\Blockchain\\BlockChain\\contracts\\UserRegistry.sol",
  "compiler": {
    "name": "solc",
    "version": "0.8.17+commit.8df45f5f.Emscripten.clang"
  },
  "schemaVersion": "3.4.16",
  "updatedAt": "2025-09-19T17:07:53.001Z",
  "networkType": "ethereum",
  "devdoc": {
    "kind": "dev",
    "methods": {},
    "version": 1
  },
  "userdoc": {
    "kind": "user",
    "methods": {},
    "version": 1
  }
}